{
  "_format": "hh-sol-artifact-1",
  "contractName": "HyperVIBES",
  "sourceName": "contracts/HyperVIBES.sol",
  "abi": [
    {
      "anonymous": false,
      "inputs": [
        {
          "indexed": true,
          "internalType": "uint256",
          "name": "realmId",
          "type": "uint256"
        },
        {
          "indexed": true,
          "internalType": "address",
          "name": "admin",
          "type": "address"
        }
      ],
      "name": "AdminAdded",
      "type": "event"
    },
    {
      "anonymous": false,
      "inputs": [
        {
          "indexed": true,
          "internalType": "uint256",
          "name": "realmId",
          "type": "uint256"
        },
        {
          "indexed": true,
          "internalType": "address",
          "name": "admin",
          "type": "address"
        }
      ],
      "name": "AdminRemoved",
      "type": "event"
    },
    {
      "anonymous": false,
      "inputs": [
        {
          "indexed": true,
          "internalType": "uint256",
          "name": "realmId",
          "type": "uint256"
        },
        {
          "indexed": true,
          "internalType": "contract IERC721",
          "name": "collection",
          "type": "address"
        },
        {
          "indexed": true,
          "internalType": "uint256",
          "name": "tokenId",
          "type": "uint256"
        },
        {
          "indexed": false,
          "internalType": "uint256",
          "name": "amount",
          "type": "uint256"
        }
      ],
      "name": "Claimed",
      "type": "event"
    },
    {
      "anonymous": false,
      "inputs": [
        {
          "indexed": true,
          "internalType": "uint256",
          "name": "realmId",
          "type": "uint256"
        },
        {
          "indexed": true,
          "internalType": "contract IERC721",
          "name": "collection",
          "type": "address"
        }
      ],
      "name": "CollectionAdded",
      "type": "event"
    },
    {
      "anonymous": false,
      "inputs": [
        {
          "indexed": true,
          "internalType": "uint256",
          "name": "realmId",
          "type": "uint256"
        },
        {
          "indexed": true,
          "internalType": "contract IERC721",
          "name": "collection",
          "type": "address"
        }
      ],
      "name": "CollectionRemoved",
      "type": "event"
    },
    {
      "anonymous": false,
      "inputs": [
        {
          "indexed": true,
          "internalType": "uint256",
          "name": "realmId",
          "type": "uint256"
        },
        {
          "indexed": true,
          "internalType": "contract IERC721",
          "name": "collection",
          "type": "address"
        },
        {
          "indexed": true,
          "internalType": "uint256",
          "name": "tokenId",
          "type": "uint256"
        },
        {
          "indexed": false,
          "internalType": "address",
          "name": "infuser",
          "type": "address"
        },
        {
          "indexed": false,
          "internalType": "uint256",
          "name": "amount",
          "type": "uint256"
        },
        {
          "indexed": false,
          "internalType": "uint256",
          "name": "dailyRate",
          "type": "uint256"
        },
        {
          "indexed": false,
          "internalType": "string",
          "name": "comment",
          "type": "string"
        }
      ],
      "name": "Infused",
      "type": "event"
    },
    {
      "anonymous": false,
      "inputs": [
        {
          "indexed": true,
          "internalType": "uint256",
          "name": "realmId",
          "type": "uint256"
        },
        {
          "indexed": true,
          "internalType": "address",
          "name": "infuser",
          "type": "address"
        }
      ],
      "name": "InfuserAdded",
      "type": "event"
    },
    {
      "anonymous": false,
      "inputs": [
        {
          "indexed": true,
          "internalType": "uint256",
          "name": "realmId",
          "type": "uint256"
        },
        {
          "indexed": true,
          "internalType": "address",
          "name": "infuser",
          "type": "address"
        }
      ],
      "name": "InfuserRemoved",
      "type": "event"
    },
    {
      "anonymous": false,
      "inputs": [
        {
          "indexed": true,
          "internalType": "uint256",
          "name": "realmId",
          "type": "uint256"
        },
        {
          "indexed": true,
          "internalType": "address",
          "name": "proxy",
          "type": "address"
        }
      ],
      "name": "InfusionProxyAdded",
      "type": "event"
    },
    {
      "anonymous": false,
      "inputs": [
        {
          "indexed": true,
          "internalType": "uint256",
          "name": "realmId",
          "type": "uint256"
        },
        {
          "indexed": true,
          "internalType": "address",
          "name": "proxy",
          "type": "address"
        }
      ],
      "name": "InfusionProxyRemoved",
      "type": "event"
    },
    {
      "anonymous": false,
      "inputs": [
        {
          "indexed": true,
          "internalType": "uint256",
          "name": "realmId",
          "type": "uint256"
        },
        {
          "indexed": false,
          "internalType": "string",
          "name": "name",
          "type": "string"
        },
        {
          "indexed": false,
          "internalType": "string",
          "name": "description",
          "type": "string"
        }
      ],
      "name": "RealmCreated",
      "type": "event"
    },
    {
      "inputs": [
        {
          "internalType": "uint256",
          "name": "realmId",
          "type": "uint256"
        },
        {
          "internalType": "address",
          "name": "proxy",
          "type": "address"
        }
      ],
      "name": "allowInfusionProxy",
      "outputs": [],
      "stateMutability": "nonpayable",
      "type": "function"
    },
    {
      "inputs": [
        {
          "components": [
            {
              "internalType": "uint256",
              "name": "realmId",
              "type": "uint256"
            },
            {
              "internalType": "contract IERC721",
              "name": "collection",
              "type": "address"
            },
            {
              "internalType": "uint256",
              "name": "tokenId",
              "type": "uint256"
            },
            {
              "internalType": "uint256",
              "name": "amount",
              "type": "uint256"
            }
          ],
          "internalType": "struct ClaimInput",
          "name": "input",
          "type": "tuple"
        }
      ],
      "name": "claim",
      "outputs": [],
      "stateMutability": "nonpayable",
      "type": "function"
    },
    {
      "inputs": [
        {
          "components": [
            {
              "internalType": "string",
              "name": "name",
              "type": "string"
            },
            {
              "internalType": "string",
              "name": "description",
              "type": "string"
            },
            {
              "components": [
                {
                  "internalType": "contract IERC20",
                  "name": "token",
                  "type": "address"
                },
                {
                  "components": [
                    {
                      "internalType": "uint256",
                      "name": "minDailyRate",
                      "type": "uint256"
                    },
                    {
                      "internalType": "uint256",
                      "name": "maxDailyRate",
                      "type": "uint256"
                    },
                    {
                      "internalType": "uint256",
                      "name": "minInfusionAmount",
                      "type": "uint256"
                    },
                    {
                      "internalType": "uint256",
                      "name": "maxInfusionAmount",
                      "type": "uint256"
                    },
                    {
                      "internalType": "uint256",
                      "name": "maxTokenBalance",
                      "type": "uint256"
                    },
                    {
                      "internalType": "uint256",
                      "name": "minClaimAmount",
                      "type": "uint256"
                    },
                    {
                      "internalType": "bool",
                      "name": "requireNftIsOwned",
                      "type": "bool"
                    },
                    {
                      "internalType": "bool",
                      "name": "allowMultiInfuse",
                      "type": "bool"
                    },
                    {
                      "internalType": "bool",
                      "name": "allowPublicInfusion",
                      "type": "bool"
                    },
                    {
                      "internalType": "bool",
                      "name": "allowAllCollections",
                      "type": "bool"
                    }
                  ],
                  "internalType": "struct RealmConstraints",
                  "name": "constraints",
                  "type": "tuple"
                }
              ],
              "internalType": "struct RealmConfig",
              "name": "config",
              "type": "tuple"
            },
            {
              "internalType": "address[]",
              "name": "admins",
              "type": "address[]"
            },
            {
              "internalType": "address[]",
              "name": "infusers",
              "type": "address[]"
            },
            {
              "internalType": "contract IERC721[]",
              "name": "collections",
              "type": "address[]"
            }
          ],
          "internalType": "struct CreateRealmInput",
          "name": "create",
          "type": "tuple"
        }
      ],
      "name": "createRealm",
      "outputs": [],
      "stateMutability": "nonpayable",
      "type": "function"
    },
    {
      "inputs": [
        {
          "internalType": "uint256",
          "name": "realmId",
          "type": "uint256"
        },
        {
          "internalType": "address",
          "name": "proxy",
          "type": "address"
        }
      ],
      "name": "denyInfusionProxy",
      "outputs": [],
      "stateMutability": "nonpayable",
      "type": "function"
    },
    {
      "inputs": [
        {
          "components": [
            {
              "internalType": "uint256",
              "name": "realmId",
              "type": "uint256"
            },
            {
              "internalType": "contract IERC721",
              "name": "collection",
              "type": "address"
            },
            {
              "internalType": "uint256",
              "name": "tokenId",
              "type": "uint256"
            },
            {
              "internalType": "address",
              "name": "infuser",
              "type": "address"
            },
            {
              "internalType": "uint256",
              "name": "dailyRate",
              "type": "uint256"
            },
            {
              "internalType": "uint256",
              "name": "amount",
              "type": "uint256"
            },
            {
              "internalType": "string",
              "name": "comment",
              "type": "string"
            }
          ],
          "internalType": "struct InfuseInput",
          "name": "input",
          "type": "tuple"
        }
      ],
      "name": "infuse",
      "outputs": [],
      "stateMutability": "nonpayable",
      "type": "function"
    },
    {
      "inputs": [
        {
          "internalType": "uint256",
          "name": "",
          "type": "uint256"
        },
        {
          "internalType": "address",
          "name": "",
          "type": "address"
        }
      ],
      "name": "isAdmin",
      "outputs": [
        {
          "internalType": "bool",
          "name": "",
          "type": "bool"
        }
      ],
      "stateMutability": "view",
      "type": "function"
    },
    {
      "inputs": [
        {
          "internalType": "uint256",
          "name": "",
          "type": "uint256"
        },
        {
          "internalType": "contract IERC721",
          "name": "",
          "type": "address"
        }
      ],
      "name": "isCollection",
      "outputs": [
        {
          "internalType": "bool",
          "name": "",
          "type": "bool"
        }
      ],
      "stateMutability": "view",
      "type": "function"
    },
    {
      "inputs": [
        {
          "internalType": "uint256",
          "name": "",
          "type": "uint256"
        },
        {
          "internalType": "address",
          "name": "",
          "type": "address"
        }
      ],
      "name": "isInfuser",
      "outputs": [
        {
          "internalType": "bool",
          "name": "",
          "type": "bool"
        }
      ],
      "stateMutability": "view",
      "type": "function"
    },
    {
      "inputs": [
        {
          "internalType": "uint256",
          "name": "",
          "type": "uint256"
        },
        {
          "internalType": "address",
          "name": "",
          "type": "address"
        },
        {
          "internalType": "address",
          "name": "",
          "type": "address"
        }
      ],
      "name": "isInfusionProxy",
      "outputs": [
        {
          "internalType": "bool",
          "name": "",
          "type": "bool"
        }
      ],
      "stateMutability": "view",
      "type": "function"
    },
    {
      "inputs": [
        {
          "components": [
            {
              "internalType": "uint256",
              "name": "realmId",
              "type": "uint256"
            },
            {
              "internalType": "address[]",
              "name": "adminsToAdd",
              "type": "address[]"
            },
            {
              "internalType": "address[]",
              "name": "adminsToRemove",
              "type": "address[]"
            },
            {
              "internalType": "address[]",
              "name": "infusersToAdd",
              "type": "address[]"
            },
            {
              "internalType": "address[]",
              "name": "infusersToRemove",
              "type": "address[]"
            },
            {
              "internalType": "contract IERC721[]",
              "name": "collectionsToAdd",
              "type": "address[]"
            },
            {
              "internalType": "contract IERC721[]",
              "name": "collectionsToRemove",
              "type": "address[]"
            }
          ],
          "internalType": "struct ModifyRealmInput",
          "name": "input",
          "type": "tuple"
        }
      ],
      "name": "modifyRealm",
      "outputs": [],
      "stateMutability": "nonpayable",
      "type": "function"
    },
    {
      "inputs": [],
      "name": "name",
      "outputs": [
        {
          "internalType": "string",
          "name": "",
          "type": "string"
        }
      ],
      "stateMutability": "pure",
      "type": "function"
    },
    {
      "inputs": [],
      "name": "nextRealmId",
      "outputs": [
        {
          "internalType": "uint256",
          "name": "",
          "type": "uint256"
        }
      ],
      "stateMutability": "view",
      "type": "function"
    },
    {
      "inputs": [
        {
          "internalType": "uint256",
          "name": "",
          "type": "uint256"
        }
      ],
      "name": "realmConfig",
      "outputs": [
        {
          "internalType": "contract IERC20",
          "name": "token",
          "type": "address"
        },
        {
          "components": [
            {
              "internalType": "uint256",
              "name": "minDailyRate",
              "type": "uint256"
            },
            {
              "internalType": "uint256",
              "name": "maxDailyRate",
              "type": "uint256"
            },
            {
              "internalType": "uint256",
              "name": "minInfusionAmount",
              "type": "uint256"
            },
            {
              "internalType": "uint256",
              "name": "maxInfusionAmount",
              "type": "uint256"
            },
            {
              "internalType": "uint256",
              "name": "maxTokenBalance",
              "type": "uint256"
            },
            {
              "internalType": "uint256",
              "name": "minClaimAmount",
              "type": "uint256"
            },
            {
              "internalType": "bool",
              "name": "requireNftIsOwned",
              "type": "bool"
            },
            {
              "internalType": "bool",
              "name": "allowMultiInfuse",
              "type": "bool"
            },
            {
              "internalType": "bool",
              "name": "allowPublicInfusion",
              "type": "bool"
            },
            {
              "internalType": "bool",
              "name": "allowAllCollections",
              "type": "bool"
            }
          ],
          "internalType": "struct RealmConstraints",
          "name": "constraints",
          "type": "tuple"
        }
      ],
      "stateMutability": "view",
      "type": "function"
    },
    {
      "inputs": [
        {
          "internalType": "uint256",
          "name": "",
          "type": "uint256"
        },
        {
          "internalType": "contract IERC721",
          "name": "",
          "type": "address"
        },
        {
          "internalType": "uint256",
          "name": "",
          "type": "uint256"
        }
      ],
      "name": "tokenData",
      "outputs": [
        {
          "internalType": "uint256",
          "name": "dailyRate",
          "type": "uint256"
        },
        {
          "internalType": "uint256",
          "name": "balance",
          "type": "uint256"
        },
        {
          "internalType": "uint256",
          "name": "lastClaimAt",
          "type": "uint256"
        }
      ],
      "stateMutability": "view",
      "type": "function"
    }
  ],
  "bytecode": "0x6080604052600160065534801561001557600080fd5b506126b8806100256000396000f3fe608060405234801561001057600080fd5b50600436106100ea5760003560e01c8063a0fadcd51161008c578063e0a0dba511610066578063e0a0dba51461029f578063e3e7e820146102b2578063e56cfb79146102c5578063fce85a921461038457600080fd5b8063a0fadcd51461020f578063acc6f1f71461023d578063d7995cd81461027157600080fd5b80633aabe3e5116100c85780633aabe3e51461017757806351e498121461018a57806364b1ec771461019d57806368c33226146101b457600080fd5b80630119f2c0146100ef57806306fdde0314610104578063146a291114610139575b600080fd5b6101026100fd36600461220b565b610397565b005b604080518082018252600a8152694879706572564942455360b01b6020820152905161013091906123e7565b60405180910390f35b61016761014736600461220b565b600160209081526000928352604080842090915290825290205460ff1681565b6040519015158152602001610130565b61010261018536600461220b565b610439565b6101026101983660046120e0565b6104cf565b6101a660065481565b604051908152602001610130565b6101f46101c236600461228d565b600460209081526000938452604080852082529284528284209052825290208054600182015460029092015490919083565b60408051938452602084019290925290820152606001610130565b61016761021d36600461227b565b600360209081526000928352604080842090915290825290205460ff1681565b61016761024b36600461223a565b600560209081526000938452604080852082529284528284209052825290205460ff1681565b61016761027f36600461220b565b600260209081526000928352604080842090915290825290205460ff1681565b6101026102ad366004611eb7565b61078d565b6101026102c0366004611f22565b610a65565b6103766102d33660046121f3565b600060208181529181526040908190208054825161014081018452600183015481526002830154948101949094526003820154928401929092526004810154606084015260058101546080840152600681015460a08401526007015460ff808216151560c08501526101008083048216151560e0860152620100008304821615159085015263010000009091041615156101208301526001600160a01b03169082565b604051610130929190612346565b61010261039236600461202d565b610cb3565b6000828152602081905260409020546001600160a01b03166103d45760405162461bcd60e51b81526004016103cb9061241f565b60405180910390fd5b60008281526005602090815260408083206001600160a01b038516808552908352818420338552909252808320805460ff1916600117905551909184917fd5a0538a0105202ff0d780fc025bc058762f13a3f089bc276c19dd33d0166ff09190a35050565b6000828152602081905260409020546001600160a01b031661046d5760405162461bcd60e51b81526004016103cb9061241f565b60008281526005602090815260408083206001600160a01b038516808552908352818420338552909252808320805460ff1916905551909184917fd6a10da4dea3b8aae04a325fb6fc41815758b75ac14928cf2e0498ecb776fe7f9190a35050565b80516000908152602081905260409020546001600160a01b03166105055760405162461bcd60e51b81526004016103cb9061241f565b8051600090815260016020908152604080832033845290915290205460ff166105625760405162461bcd60e51b815260206004820152600f60248201526e3737ba103932b0b6369030b236b4b760891b60448201526064016103cb565b60005b8160200151518110156105bd576105ab82600001518360200151838151811061059e57634e487b7160e01b600052603260045260246000fd5b6020026020010151610f40565b806105b581612618565b915050610565565b5060005b816060015151811015610619576106078260000151836060015183815181106105fa57634e487b7160e01b600052603260045260246000fd5b6020026020010151610fe3565b8061061181612618565b9150506105c1565b5060005b8160a00151518110156106755761066382600001518360a00151838151811061065657634e487b7160e01b600052603260045260246000fd5b6020026020010151611064565b8061066d81612618565b91505061061d565b5060005b8160400151518110156106d1576106bf8260000151836040015183815181106106b257634e487b7160e01b600052603260045260246000fd5b60200260200101516110e5565b806106c981612618565b915050610679565b5060005b81608001515181101561072d5761071b82600001518360800151838151811061070e57634e487b7160e01b600052603260045260246000fd5b6020026020010151611183565b8061072581612618565b9150506106d5565b5060005b8160c00151518110156107895761077782600001518360c00151838151811061076a57634e487b7160e01b600052603260045260246000fd5b6020026020010151611201565b8061078181612618565b915050610731565b5050565b8051600090815260208190526040902060060154606082015110156107e55760405162461bcd60e51b815260206004820152600e60248201526d616d6f756e7420746f6f206c6f7760901b60448201526064016103cb565b6107f8816020015182604001513361127f565b61083c5760405162461bcd60e51b81526020600482015260156024820152741b9bdd081bdddb995c881bdc88185c1c1c9bdd9959605a1b60448201526064016103cb565b80516000908152600460209081526040808320828501516001600160a01b031684528252808320818501518452909152902060028101546108b35760405162461bcd60e51b81526020600482015260116024820152701d1bdad95b881b9bdd081a5b999d5cd959607a1b60448201526064016103cb565b60006108cc836000015184602001518560400151611431565b90506000818460600151106108e157816108e7565b83606001515b90506000811161092c5760405162461bcd60e51b815260206004820152601060248201526f6e6f7468696e6720746f20636c61696d60801b60448201526064016103cb565b825460009061093e83620151806125e2565b61094891906125c2565b846002015461095791906125aa565b90508184600101600082825461096d9190612601565b90915550506002840181905584516000908152602081905260409081902054905163a9059cbb60e01b8152336004820152602481018490526001600160a01b039091169063a9059cbb90604401602060405180830381600087803b1580156109d457600080fd5b505af11580156109e8573d6000803e3d6000fd5b505050506040513d601f19601f82011682018060405250810190610a0c9190611e9b565b50846040015185602001516001600160a01b031686600001517fd9cb1e2714d65a111c0f20f060176ad657496bd47a3de04ec7c3d4ca232112ac85604051610a5691815260200190565b60405180910390a45050505050565b6040810151516001600160a01b0316610a905760405162461bcd60e51b81526004016103cb90612446565b610aa1816040015160200151611547565b6006805460009182610ab283612618565b909155506040838101516000838152602081815290839020825181546001600160a01b0319166001600160a01b039091161781559181015180516001840155808201516002840155808401516003840155606081015160048401556080810151600584015560a0810151600684015560c08101516007909301805460e0830151610100808501516101209095015161ffff1990931696151561ff001916969096179015159095029490941763ffff00001916620100009215159290920263ff00000019169190911763010000009315159390930292909217909155845190850151915192935083927f1f79f473af810434af43cf8acedf605c90728532ffc650763a420ff7104a4f0792610bc692916123fa565b60405180910390a260005b826060015151811015610c1857610c06828460600151838151811061059e57634e487b7160e01b600052603260045260246000fd5b80610c1081612618565b915050610bd1565b5060005b826080015151811015610c6357610c5182846080015183815181106105fa57634e487b7160e01b600052603260045260246000fd5b80610c5b81612618565b915050610c1c565b5060005b8260a0015151811015610cae57610c9c828460a00151838151811061065657634e487b7160e01b600052603260045260246000fd5b80610ca681612618565b915050610c67565b505050565b80516000908152600460208181526040808420828601516001600160a01b0390811686529083528185208287015186528352818520865186528584529482902082518084018452815490921682528251610140810184526001808301548252600280840154838801526003840154838701529683015460608084019190915260058401546080840152600684015460a084015260079093015460ff808216151560c08501526101008083048216151560e086015262010000830482161515908501526301000000909104161515610120830152838601919091528351918201845286548252860154938101939093529284015490820152610db6908490836116de565b6002820154610dd15760808301518255426002830155610de1565b6001820154610de1574260028301555b60008360a001518360010154610df791906125aa565b905060008260200151608001518211610e105781610e1a565b8260200151608001515b90506000846001015482610e2e9190612601565b905080856001016000828254610e4491906125aa565b909155505083516040516323b872dd60e01b8152336004820152306024820152604481018390526001600160a01b03909116906323b872dd90606401602060405180830381600087803b158015610e9a57600080fd5b505af1158015610eae573d6000803e3d6000fd5b505050506040513d601f19601f82011682018060405250810190610ed29190611e9b565b50856040015186602001516001600160a01b031687600001517f606685205adbadb79dbf1bcf4011815747dd262f3a50517d54074ebd375a78cd89606001518a60a001518b608001518c60c00151604051610f30949392919061230f565b60405180910390a4505050505050565b6001600160a01b038116610f865760405162461bcd60e51b815260206004820152600d60248201526c34b73b30b634b21030b236b4b760991b60448201526064016103cb565b60008281526001602081815260408084206001600160a01b0386168086529252808420805460ff19169093179092559051909184917f5b9611f54db67f0ad14ca6d531a6b00d0c68defcd0843350fb378ee2aac1a5cd9190a35050565b6001600160a01b0381166110095760405162461bcd60e51b81526004016103cb90612499565b60008281526002602090815260408083206001600160a01b0385168085529252808320805460ff1916600117905551909184917fc09151346ee5cf035b7e946b3aeed78c678983e85852fd9e01bfa645901838d59190a35050565b6001600160a01b03811661108a5760405162461bcd60e51b81526004016103cb9061246d565b60008281526003602090815260408083206001600160a01b0385168085529252808320805460ff1916600117905551909184917f5e3d1585e0f8a5e33692fa9ffec4d91034e56972c0e39c19f09aeb1e475069029190a35050565b6001600160a01b03811661112b5760405162461bcd60e51b815260206004820152600d60248201526c34b73b30b634b21030b236b4b760991b60448201526064016103cb565b60008281526001602090815260408083206001600160a01b0385168085529252808320805460ff1916905551909184917f8b41a2498e3f784d58ed746da2a7a2f699504cdd0ee2f9982dc7256e006e7ee59190a35050565b6001600160a01b0381166111a95760405162461bcd60e51b81526004016103cb90612499565b60008281526002602090815260408083206001600160a01b0385168085529252808320805460ff1916905551909184917fb03ae30e8d841f04e4edd55f2fcf2717548ffc83a440e28f45b0fd43a66f0dfe9190a35050565b6001600160a01b0381166112275760405162461bcd60e51b81526004016103cb9061246d565b60008281526003602090815260408083206001600160a01b0385168085529252808320805460ff1916905551909184917f86229b36f653715e4b32ef15480adbd8e2502282490e8c1755e3166cd80b03379190a35050565b6040516331a9108f60e11b81526004810183905260009081906001600160a01b03861690636352211e9060240160206040518083038186803b1580156112c457600080fd5b505afa1580156112d8573d6000803e3d6000fd5b505050506040513d601f19601f820116820180604052508101906112fc9190611e78565b9050826001600160a01b0316816001600160a01b031614806113a1575060405163020604bf60e21b8152600481018590526001600160a01b03808516919087169063081812fc9060240160206040518083038186803b15801561135e57600080fd5b505afa158015611372573d6000803e3d6000fd5b505050506040513d601f19601f820116820180604052508101906113969190611e78565b6001600160a01b0316145b80611428575060405163e985e9c560e01b81526001600160a01b038281166004830152848116602483015286169063e985e9c59060440160206040518083038186803b1580156113f057600080fd5b505afa158015611404573d6000803e3d6000fd5b505050506040513d601f19601f820116820180604052508101906114289190611e9b565b95945050505050565b60008381526004602090815260408083206001600160a01b038616845282528083208484528252808320815160608101835281548152600182015493810193909352600201549082018190526114c95760405162461bcd60e51b815260206004820152601a60248201527f746f6b656e20686173206e6f74206265656e20696e667573656400000000000060448201526064016103cb565b6114d38484611bb6565b6114ef5760405162461bcd60e51b81526004016103cb90612446565b60008160400151426115019190612601565b905060006201518083600001518361151991906125e2565b61152391906125c2565b905082602001518111611536578061153c565b82602001515b979650505050505050565b60208101518151111561159c5760405162461bcd60e51b815260206004820152601a60248201527f696e76616c6964206d696e2f6d6178206461696c79207261746500000000000060448201526064016103cb565b8060600151816040015111156115ed5760405162461bcd60e51b81526020600482015260166024820152751a5b9d985b1a59081b5a5b8bdb585e08185b5bdd5b9d60521b60448201526064016103cb565b60008160600151116116365760405162461bcd60e51b81526020600482015260126024820152711a5b9d985b1a59081b585e08185b5bdd5b9d60721b60448201526064016103cb565b600081608001511161168a5760405162461bcd60e51b815260206004820152601960248201527f696e76616c6964206d617820746f6b656e2062616c616e63650000000000000060448201526064016103cb565b80608001518160a0015111156116db5760405162461bcd60e51b81526020600482015260166024820152751a5b9d985b1a59081b5a5b90db185a5b505b5bdd5b9d60521b60448201526064016103cb565b50565b6116f083602001518460400151611bb6565b61170c5760405162461bcd60e51b81526004016103cb90612446565b82516000908152602081905260409020546001600160a01b03166117425760405162461bcd60e51b81526004016103cb9061241f565b8060200151604001518360a00151101561178f5760405162461bcd60e51b815260206004820152600e60248201526d616d6f756e7420746f6f206c6f7760901b60448201526064016103cb565b8060200151606001518360a0015111156117dd5760405162461bcd60e51b815260206004820152600f60248201526e0c2dadeeadce840e8dede40d0d2ced608b1b60448201526064016103cb565b600083606001516001600160a01b031684602001516001600160a01b0316636352211e86604001516040518263ffffffff1660e01b815260040161182391815260200190565b60206040518083038186803b15801561183b57600080fd5b505afa15801561184f573d6000803e3d6000fd5b505050506040513d601f19601f820116820180604052508101906118739190611e78565b8551600090815260026020908152604080832033808552908352818420548a51855260038452828520848c01516001600160a01b039081168752908552838620548c5187526005865284872093875292855283862060608d01518216875290945291909320549390911693909314935060ff92831692908116911683806119005750846020015160c00151155b61194c5760405162461bcd60e51b815260206004820152601860248201527f6e6674206e6f74206f776e656420627920696e6675736572000000000000000060448201526064016103cb565b828061195e5750846020015161010001515b61197a5760405162461bcd60e51b81526004016103cb90612499565b818061198c5750846020015161012001515b6119a85760405162461bcd60e51b81526004016103cb9061246d565b80806119c9575086606001516001600160a01b0316336001600160a01b0316145b611a0e5760405162461bcd60e51b815260206004820152601660248201527534b73b30b634b210383937bc3c9034b7333ab9b4b7b760511b60448201526064016103cb565b604086015115611abe576080870151865114611a6c5760405162461bcd60e51b815260206004820152601760248201527f6461696c79207261746520697320696d6d757461626c6500000000000000000060448201526064016103cb565b846020015160e00151611ab95760405162461bcd60e51b81526020600482015260156024820152741b5d5b1d1a481a5b999d5cd948191a5cd8589b1959605a1b60448201526064016103cb565b611b5e565b60208501515160808801511015611b0c5760405162461bcd60e51b81526020600482015260126024820152716461696c79207261746520746f6f206c6f7760701b60448201526064016103cb565b84602001516020015187608001511115611b5e5760405162461bcd60e51b81526020600482015260136024820152720c8c2d2d8f240e4c2e8ca40e8dede40d0d2ced606b1b60448201526064016103cb565b846020015160800151866020015110611bad5760405162461bcd60e51b81526020600482015260116024820152706d617820746f6b656e2062616c616e636560781b60448201526064016103cb565b50505050505050565b6040516331a9108f60e11b8152600481018290526000906001600160a01b03841690636352211e9060240160206040518083038186803b158015611bf957600080fd5b505afa925050508015611c29575060408051601f3d908101601f19168201909252611c2691810190611e78565b60015b611c3557506000611c3b565b60019150505b92915050565b8035611c4c8161265f565b919050565b600082601f830112611c61578081fd5b81356020611c76611c7183612586565b612555565b80838252828201915082860187848660051b8901011115611c95578586fd5b855b85811015611cbc578135611caa8161265f565b84529284019290840190600101611c97565b5090979650505050505050565b600082601f830112611cd9578081fd5b81356020611ce9611c7183612586565b80838252828201915082860187848660051b8901011115611d08578586fd5b855b85811015611cbc578135611d1d8161265f565b84529284019290840190600101611d0a565b8035611c4c81612674565b600082601f830112611d4a578081fd5b813567ffffffffffffffff811115611d6457611d64612649565b611d77601f8201601f1916602001612555565b818152846020838601011115611d8b578283fd5b816020850160208301379081016020019190915292915050565b6000818303610160811215611db8578182fd5b611dc06124c2565b91508235611dcd8161265f565b8252610140601f198201811315611de357600080fd5b611deb6124eb565b91506020840135825260408401356020830152606084013560408301526080840135606083015260a0840135608083015260c084013560a0830152611e3260e08501611d2f565b60c0830152610100611e45818601611d2f565b60e0840152610120611e58818701611d2f565b82850152611e67838701611d2f565b908401525050602082015292915050565b600060208284031215611e89578081fd5b8151611e948161265f565b9392505050565b600060208284031215611eac578081fd5b8151611e9481612674565b600060808284031215611ec8578081fd5b6040516080810181811067ffffffffffffffff82111715611eeb57611eeb612649565b604052823581526020830135611f008161265f565b6020820152604083810135908201526060928301359281019290925250919050565b600060208284031215611f33578081fd5b813567ffffffffffffffff80821115611f4a578283fd5b908301906102008286031215611f5e578283fd5b611f6661250f565b823582811115611f74578485fd5b611f8087828601611d3a565b825250602083013582811115611f94578485fd5b611fa087828601611d3a565b602083015250611fb38660408501611da5565b60408201526101a083013582811115611fca578485fd5b611fd687828601611c51565b6060830152506101c083013582811115611fee578485fd5b611ffa87828601611c51565b6080830152506101e083013582811115612012578485fd5b61201e87828601611cc9565b60a08301525095945050505050565b60006020828403121561203e578081fd5b813567ffffffffffffffff80821115612055578283fd5b9083019060e08286031215612068578283fd5b612070612532565b8235815261208060208401611c41565b60208201526040830135604082015261209b60608401611c41565b60608201526080830135608082015260a083013560a082015260c0830135828111156120c5578485fd5b6120d187828601611d3a565b60c08301525095945050505050565b6000602082840312156120f1578081fd5b813567ffffffffffffffff80821115612108578283fd5b9083019060e0828603121561211b578283fd5b612123612532565b82358152602083013582811115612138578485fd5b61214487828601611c51565b60208301525060408301358281111561215b578485fd5b61216787828601611c51565b60408301525060608301358281111561217e578485fd5b61218a87828601611c51565b6060830152506080830135828111156121a1578485fd5b6121ad87828601611c51565b60808301525060a0830135828111156121c4578485fd5b6121d087828601611cc9565b60a08301525060c0830135828111156121e7578485fd5b6120d187828601611cc9565b600060208284031215612204578081fd5b5035919050565b6000806040838503121561221d578081fd5b82359150602083013561222f8161265f565b809150509250929050565b60008060006060848603121561224e578081fd5b8335925060208401356122608161265f565b915060408401356122708161265f565b809150509250925092565b6000806040838503121561221d578182fd5b6000806000606084860312156122a1578081fd5b8335925060208401356122b38161265f565b929592945050506040919091013590565b60008151808452815b818110156122e9576020818501810151868301820152016122cd565b818111156122fa5782602083870101525b50601f01601f19169290920160200192915050565b60018060a01b038516815283602082015282604082015260806060820152600061233c60808301846122c4565b9695505050505050565b60006101608201905060018060a01b038416825282516020830152602083015160408301526040830151606083015260608301516080830152608083015160a083015260a083015160c083015260c08301516123a660e084018215159052565b5060e08301516101006123bc8185018315159052565b84015190506101206123d18482018315159052565b8401518015156101408501529050509392505050565b602081526000611e9460208301846122c4565b60408152600061240d60408301856122c4565b828103602084015261142881856122c4565b6020808252600d908201526c696e76616c6964207265616c6d60981b604082015260600190565b6020808252600d908201526c34b73b30b634b2103a37b5b2b760991b604082015260600190565b60208082526012908201527134b73b30b634b21031b7b63632b1ba34b7b760711b604082015260600190565b6020808252600f908201526e34b73b30b634b21034b7333ab9b2b960891b604082015260600190565b6040805190810167ffffffffffffffff811182821017156124e5576124e5612649565b60405290565b604051610140810167ffffffffffffffff811182821017156124e5576124e5612649565b60405160c0810167ffffffffffffffff811182821017156124e5576124e5612649565b60405160e0810167ffffffffffffffff811182821017156124e5576124e5612649565b604051601f8201601f1916810167ffffffffffffffff8111828210171561257e5761257e612649565b604052919050565b600067ffffffffffffffff8211156125a0576125a0612649565b5060051b60200190565b600082198211156125bd576125bd612633565b500190565b6000826125dd57634e487b7160e01b81526012600452602481fd5b500490565b60008160001904831182151516156125fc576125fc612633565b500290565b60008282101561261357612613612633565b500390565b600060001982141561262c5761262c612633565b5060010190565b634e487b7160e01b600052601160045260246000fd5b634e487b7160e01b600052604160045260246000fd5b6001600160a01b03811681146116db57600080fd5b80151581146116db57600080fdfea2646970667358221220d6fede1d6fef97bbd2f30942b9c8e9f42028270ef93fc9cafae2e566783c69b464736f6c63430008040033",
  "linkReferences": {},
  "deployedLinkReferences": {}
}